{
  "transactions": [
    {
      "hash": "0xcf963127de5eda461b3824565b8b5ce5ee2005f6e07c7d09a10ee520f710b23b",
      "transactionType": "CALL",
      "contractName": null,
      "contractAddress": "0x779877a7b0d9e8603169ddbd7836e478b4624789",
      "function": "transferAndCall(address,uint256,bytes)",
      "arguments": [
        "0x9DdfaCa8183c41ad55329BdeeD9F6A8d53168B1B",
        "3000000000000000000",
        "0xffda54db7bf0c74d00432714449993633bd9efb38d590546e9885d8704beaad8"
      ],
      "transaction": {
        "from": "0x73c6eac43c2d36ad8b9cb140608cf52e64b5e0e9",
        "to": "0x779877a7b0d9e8603169ddbd7836e478b4624789",
        "gas": "0x1603d",
        "value": "0x0",
        "input": "0x4000aea00000000000000000000000009ddfaca8183c41ad55329bdeed9f6a8d53168b1b00000000000000000000000000000000000000000000000029a2241af62c000000000000000000000000000000000000000000000000000000000000000000600000000000000000000000000000000000000000000000000000000000000020ffda54db7bf0c74d00432714449993633bd9efb38d590546e9885d8704beaad8",
        "nonce": "0x9",
        "chainId": "0xaa36a7"
      },
      "additionalContracts": [],
      "isFixedGasLimit": false
    }
  ],
  "receipts": [
    {
      "status": "0x1",
      "cumulativeGasUsed": "0xcd7f80",
      "logs": [
        {
          "address": "0x779877a7b0d9e8603169ddbd7836e478b4624789",
          "topics": [
            "0xddf252ad1be2c89b69c2b068fc378daa952ba7f163c4a11628f55a4df523b3ef",
            "0x00000000000000000000000073c6eac43c2d36ad8b9cb140608cf52e64b5e0e9",
            "0x0000000000000000000000009ddfaca8183c41ad55329bdeed9f6a8d53168b1b"
          ],
          "data": "0x00000000000000000000000000000000000000000000000029a2241af62c0000",
          "blockHash": "0xb96f10e033be44ec1da3df97372833f905d3dd91772510514466cab81742b5c8",
          "blockNumber": "0x83f3a8",
          "blockTimestamp": "0x685fe9d8",
          "transactionHash": "0xcf963127de5eda461b3824565b8b5ce5ee2005f6e07c7d09a10ee520f710b23b",
          "transactionIndex": "0x8f",
          "logIndex": "0x111",
          "removed": false
        },
        {
          "address": "0x779877a7b0d9e8603169ddbd7836e478b4624789",
          "topics": [
            "0xe19260aff97b920c7df27010903aeb9c8d2be5d310a2c67824cf3f15396e4c16",
            "0x00000000000000000000000073c6eac43c2d36ad8b9cb140608cf52e64b5e0e9",
            "0x0000000000000000000000009ddfaca8183c41ad55329bdeed9f6a8d53168b1b"
          ],
          "data": "0x00000000000000000000000000000000000000000000000029a2241af62c000000000000000000000000000000000000000000000000000000000000000000400000000000000000000000000000000000000000000000000000000000000020ffda54db7bf0c74d00432714449993633bd9efb38d590546e9885d8704beaad8",
          "blockHash": "0xb96f10e033be44ec1da3df97372833f905d3dd91772510514466cab81742b5c8",
          "blockNumber": "0x83f3a8",
          "blockTimestamp": "0x685fe9d8",
          "transactionHash": "0xcf963127de5eda461b3824565b8b5ce5ee2005f6e07c7d09a10ee520f710b23b",
          "transactionIndex": "0x8f",
          "logIndex": "0x112",
          "removed": false
        },
        {
          "address": "0x9ddfaca8183c41ad55329bdeed9f6a8d53168b1b",
          "topics": [
            "0x1ced9348ff549fceab2ac57cd3a9de38edaaab274b725ee82c23e8fc8c4eec7a",
            "0xffda54db7bf0c74d00432714449993633bd9efb38d590546e9885d8704beaad8"
          ],
          "data": "0x000000000000000000000000000000000000000000000001158e460913d000000000000000000000000000000000000000000000000000013f306a2409fc0000",
          "blockHash": "0xb96f10e033be44ec1da3df97372833f905d3dd91772510514466cab81742b5c8",
          "blockNumber": "0x83f3a8",
          "blockTimestamp": "0x685fe9d8",
          "transactionHash": "0xcf963127de5eda461b3824565b8b5ce5ee2005f6e07c7d09a10ee520f710b23b",
          "transactionIndex": "0x8f",
          "logIndex": "0x113",
          "removed": false
        }
      ],
      "logsBloom": "0x00000004000000000000000000000000000000000020000000000000020000000000000010000000000000000000000000000000000000000000000000000000000000000000000000000008000000000000000000000000000020000020000008000000000000000000000000000000000000000000000000000010000040000000000000000000000000010000800000000020000000000000000000000400000000000000000000000000010000000000000000000800000004000000000000000002000000000000000000000000000000040000000100000000000020000010000000000000800000000000000000000000000000000000000000000800",
      "type": "0x2",
      "transactionHash": "0xcf963127de5eda461b3824565b8b5ce5ee2005f6e07c7d09a10ee520f710b23b",
      "transactionIndex": "0x8f",
      "blockHash": "0xb96f10e033be44ec1da3df97372833f905d3dd91772510514466cab81742b5c8",
      "blockNumber": "0x83f3a8",
      "gasUsed": "0xf0d9",
      "effectiveGasPrice": "0x1a54fd",
      "from": "0x73c6eac43c2d36ad8b9cb140608cf52e64b5e0e9",
      "to": "0x779877a7b0d9e8603169ddbd7836e478b4624789",
      "contractAddress": null
    }
  ],
  "libraries": [],
  "pending": [],
  "returns": {},
  "timestamp": 1751116249,
  "chain": 11155111,
  "commit": "39e6883"
}